{
  "contractName": "ContractThatReverts",
  "abi": [
    {
      "stateMutability": "payable",
      "type": "fallback"
    },
    {
      "stateMutability": "payable",
      "type": "receive"
    },
    {
      "inputs": [
        {
          "internalType": "string",
          "name": "reason",
          "type": "string"
        }
      ],
      "name": "setReason",
      "outputs": [],
      "stateMutability": "nonpayable",
      "type": "function"
    },
    {
      "inputs": [],
      "name": "reason",
      "outputs": [
        {
          "internalType": "string",
          "name": "",
          "type": "string"
        }
      ],
      "stateMutability": "view",
      "type": "function"
    },
    {
      "inputs": [],
      "name": "revertNoReason",
      "outputs": [],
      "stateMutability": "pure",
      "type": "function"
    },
    {
      "inputs": [
        {
          "internalType": "string",
          "name": "reasonMsg",
          "type": "string"
        }
      ],
      "name": "revertWithReason",
      "outputs": [],
      "stateMutability": "pure",
      "type": "function"
    }
  ],
  "bytecode": "0x608060405234801561001057600080fd5b506105c8806100206000396000f3fe6080604052600436106100435760003560e01c80633dcfb1db1461020e57806366092abd14610294578063e134e33d146102ab578063f7a303811461033b5761012b565b3661012b5760008080546001816001161561010002031660029004905011156101265760006040517f08c379a000000000000000000000000000000000000000000000000000000000815260040180806020018281038252838181546001816001161561010002031660029004815260200191508054600181600116156101000203166002900480156101175780601f106100ec57610100808354040283529160200191610117565b820191906000526020600020905b8154815290600101906020018083116100fa57829003601f168201915b50509250505060405180910390fd5b600080fd5b60008080546001816001161561010002031660029004905011156102095760006040517f08c379a000000000000000000000000000000000000000000000000000000000815260040180806020018281038252838181546001816001161561010002031660029004815260200191508054600181600116156101000203166002900480156101fa5780601f106101cf576101008083540402835291602001916101fa565b820191906000526020600020905b8154815290600101906020018083116101dd57829003601f168201915b50509250505060405180910390fd5b600080fd5b34801561021a57600080fd5b506102926004803603602081101561023157600080fd5b810190808035906020019064010000000081111561024e57600080fd5b82018360208201111561026057600080fd5b8035906020019184600183028401116401000000008311171561028257600080fd5b90919293919293905050506103c1565b005b3480156102a057600080fd5b506102a96103d7565b005b3480156102b757600080fd5b506102c06103dc565b6040518080602001828103825283818151815260200191508051906020019080838360005b838110156103005780820151818401526020810190506102e5565b50505050905090810190601f16801561032d5780820380516001836020036101000a031916815260200191505b509250505060405180910390f35b34801561034757600080fd5b506103bf6004803603602081101561035e57600080fd5b810190808035906020019064010000000081111561037b57600080fd5b82018360208201111561038d57600080fd5b803590602001918460018302840111640100000000831117156103af57600080fd5b909192939192939050505061047e565b005b8181600091906103d29291906104e7565b505050565b600080fd5b606060008054600181600116156101000203166002900480601f0160208091040260200160405190810160405280929190818152602001828054600181600116156101000203166002900480156104745780601f1061044957610100808354040283529160200191610474565b820191906000526020600020905b81548152906001019060200180831161045757829003601f168201915b5050505050905090565b81816040517f08c379a000000000000000000000000000000000000000000000000000000000815260040180806020018281038252848482818152602001925080828437600081840152601f19601f820116905080830192505050935050505060405180910390fd5b828054600181600116156101000203166002900490600052602060002090601f01602090048101928261051d5760008555610564565b82601f1061053657803560ff1916838001178555610564565b82800160010185558215610564579182015b82811115610563578235825591602001919060010190610548565b5b5090506105719190610575565b5090565b5b8082111561058e576000816000905550600101610576565b509056fea2646970667358221220757fe8899d5d4e063e5d94c6aeb3f9a7b83264f40e537b39f628f97e1094b86564736f6c63430007040033",
  "immutableReferences": {},
  "source": "/**\r\n * SPDX-License-Identifier: MIT\r\n *\r\n * Copyright (c) 2020 DYCLUDE\r\n *\r\n * Permission is hereby granted, free of charge, to any person obtaining a copy\r\n * of this software and associated documentation files (the \"Software\"), to deal\r\n * in the Software without restriction, including without limitation the rights\r\n * to use, copy, modify, merge, publish, distribute, sublicense, and/or sell\r\n * copies of the Software, and to permit persons to whom the Software is\r\n * furnished to do so, subject to the following conditions:\r\n *\r\n * The above copyright notice and this permission notice shall be included in\r\n * copies or substantial portions of the Software.\r\n *\r\n * THE SOFTWARE IS PROVIDED \"AS IS\", WITHOUT WARRANTY OF ANY KIND, EXPRESS OR\r\n * IMPLIED, INCLUDING BUT NOT LIMITED TO THE WARRANTIES OF MERCHANTABILITY,\r\n * FITNESS FOR A PARTICULAR PURPOSE AND NONINFRINGEMENT. IN NO EVENT SHALL THE\r\n * AUTHORS OR COPYRIGHT HOLDERS BE LIABLE FOR ANY CLAIM, DAMAGES OR OTHER\r\n * LIABILITY, WHETHER IN AN ACTION OF CONTRACT, TORT OR OTHERWISE, ARISING FROM,\r\n * OUT OF OR IN CONNECTION WITH THE SOFTWARE OR THE USE OR OTHER DEALINGS IN THE\r\n * SOFTWARE.\r\n */\r\n\r\npragma solidity >=0.4.22 <0.8.0;\r\n\r\n// solhint-disable no-unused-vars\r\n// solhint-disable no-complex-fallback\r\n// solhint-disable reason-string\r\n\r\ncontract ContractThatReverts {\r\n    string private _reason;\r\n\r\n    function setReason(string calldata reason) external {\r\n        _reason = reason;\r\n    }\r\n\r\n    function reason() external view returns (string memory) {\r\n        return _reason;\r\n    }\r\n\r\n    function revertNoReason() external pure {\r\n        revert();\r\n    }\r\n\r\n    function revertWithReason(string calldata reasonMsg) external pure {\r\n        revert(reasonMsg);\r\n    }\r\n\r\n    fallback() external payable {\r\n        if (bytes(_reason).length > 0) {\r\n            revert(_reason);\r\n        }\r\n        revert();\r\n    }\r\n\r\n    receive() external payable {\r\n        if (bytes(_reason).length > 0) {\r\n            revert(_reason);\r\n        }\r\n        revert();\r\n    }\r\n}\r\n",
  "sourcePath": "C:/Users/ENCRYPTION.001/Desktop/Projects/Dyclude/PGS/contracts/test/ContractThatReverts.sol",
  "compiler": {
    "name": "solc",
    "version": "0.7.4+commit.3f05b770.Emscripten.clang"
  },
  "schemaVersion": "3.3.2",
  "updatedAt": "2020-11-17T12:32:33.768Z",
  "devdoc": {
    "kind": "dev",
    "methods": {},
    "version": 1
  },
  "userdoc": {
    "kind": "user",
    "methods": {},
    "version": 1
  }
}