{
  "contractName": "EIP712Test",
  "abi": [
    {
      "inputs": [
        {
          "internalType": "string",
          "name": "name",
          "type": "string"
        },
        {
          "internalType": "string",
          "name": "version",
          "type": "string"
        }
      ],
      "name": "makeDomainSeparator",
      "outputs": [
        {
          "internalType": "bytes32",
          "name": "",
          "type": "bytes32"
        }
      ],
      "stateMutability": "view",
      "type": "function"
    },
    {
      "inputs": [
        {
          "internalType": "bytes32",
          "name": "domainSeparator",
          "type": "bytes32"
        },
        {
          "internalType": "uint8",
          "name": "v",
          "type": "uint8"
        },
        {
          "internalType": "bytes32",
          "name": "r",
          "type": "bytes32"
        },
        {
          "internalType": "bytes32",
          "name": "s",
          "type": "bytes32"
        },
        {
          "internalType": "bytes",
          "name": "typeHashAndData",
          "type": "bytes"
        }
      ],
      "name": "recover",
      "outputs": [
        {
          "internalType": "address",
          "name": "",
          "type": "address"
        }
      ],
      "stateMutability": "pure",
      "type": "function"
    }
  ],
  "bytecode": "0x608060405234801561001057600080fd5b50610682806100206000396000f3fe608060405234801561001057600080fd5b50600436106100365760003560e01c80633be282801461003b578063c729a0291461011d575b600080fd5b6101076004803603604081101561005157600080fd5b810190808035906020019064010000000081111561006e57600080fd5b82018360208201111561008057600080fd5b803590602001918460018302840111640100000000831117156100a257600080fd5b9091929391929390803590602001906401000000008111156100c357600080fd5b8201836020820111156100d557600080fd5b803590602001918460018302840111640100000000831117156100f757600080fd5b90919293919293905050506101eb565b6040518082815260200191505060405180910390f35b6101bf600480360360a081101561013357600080fd5b8101908080359060200190929190803560ff16906020019092919080359060200190929190803590602001909291908035906020019064010000000081111561017b57600080fd5b82018360208201111561018d57600080fd5b803590602001918460018302840111640100000000831117156101af57600080fd5b9091929391929390505050610289565b604051808273ffffffffffffffffffffffffffffffffffffffff16815260200191505060405180910390f35b600061027f85858080601f016020809104026020016040519081016040528093929190818152602001838380828437600081840152601f19601f8201169050808301925050505050505084848080601f016020809104026020016040519081016040528093929190818152602001838380828437600081840152601f19601f820116905080830192505050505050506102e8565b9050949350505050565b60006102dc8787878787878080601f016020809104026020016040519081016040528093929190818152602001838380828437600081840152601f19601f82011690508083019250505050505050610382565b90509695505050505050565b6000804690507f8b73c3c69bb8fe3d512ecc4cf759cc79239f7b179b0ffacaa9a75d522b39400f848051906020012084805190602001208330604051602001808681526020018581526020018481526020018381526020018273ffffffffffffffffffffffffffffffffffffffff168152602001955050505050506040516020818303038152906040528051906020012091505092915050565b60008086838051906020012060405160200180807f1901000000000000000000000000000000000000000000000000000000000000815250600201838152602001828152602001925050506040516020818303038152906040528051906020012090506103f1818787876103fd565b91505095945050505050565b60007f7fffffffffffffffffffffffffffffff5d576e7357a4501ddfe92f46681b20a08260001c111561047b576040517f08c379a00000000000000000000000000000000000000000000000000000000081526004018080602001828103825260268152602001806106276026913960400191505060405180910390fd5b601b8460ff16141580156104935750601c8460ff1614155b156104e9576040517f08c379a00000000000000000000000000000000000000000000000000000000081526004018080602001828103825260268152602001806106016026913960400191505060405180910390fd5b600060018686868660405160008152602001604052604051808581526020018460ff1681526020018381526020018281526020019450505050506020604051602081039080840390855afa158015610545573d6000803e3d6000fd5b505050602060405103519050600073ffffffffffffffffffffffffffffffffffffffff168173ffffffffffffffffffffffffffffffffffffffff1614156105f4576040517f08c379a000000000000000000000000000000000000000000000000000000000815260040180806020018281038252601c8152602001807f45435265636f7665723a20696e76616c6964207369676e61747572650000000081525060200191505060405180910390fd5b8091505094935050505056fe45435265636f7665723a20696e76616c6964207369676e6174757265202776272076616c756545435265636f7665723a20696e76616c6964207369676e6174757265202773272076616c7565a2646970667358221220d79ded474ee5bf22d3f5d685c31d83a16a568e6c2d9e06472983bb42ee305f4a64736f6c63430007040033",
  "immutableReferences": {},
  "source": "/**\r\n * SPDX-License-Identifier: MIT\r\n *\r\n * Copyright (c) 2020 DYCLUDE\r\n *\r\n * Permission is hereby granted, free of charge, to any person obtaining a copy\r\n * of this software and associated documentation files (the \"Software\"), to deal\r\n * in the Software without restriction, including without limitation the rights\r\n * to use, copy, modify, merge, publish, distribute, sublicense, and/or sell\r\n * copies of the Software, and to permit persons to whom the Software is\r\n * furnished to do so, subject to the following conditions:\r\n *\r\n * The above copyright notice and this permission notice shall be included in\r\n * copies or substantial portions of the Software.\r\n *\r\n * THE SOFTWARE IS PROVIDED \"AS IS\", WITHOUT WARRANTY OF ANY KIND, EXPRESS OR\r\n * IMPLIED, INCLUDING BUT NOT LIMITED TO THE WARRANTIES OF MERCHANTABILITY,\r\n * FITNESS FOR A PARTICULAR PURPOSE AND NONINFRINGEMENT. IN NO EVENT SHALL THE\r\n * AUTHORS OR COPYRIGHT HOLDERS BE LIABLE FOR ANY CLAIM, DAMAGES OR OTHER\r\n * LIABILITY, WHETHER IN AN ACTION OF CONTRACT, TORT OR OTHERWISE, ARISING FROM,\r\n * OUT OF OR IN CONNECTION WITH THE SOFTWARE OR THE USE OR OTHER DEALINGS IN THE\r\n * SOFTWARE.\r\n */\r\n\r\npragma solidity >=0.4.22 <0.8.0;\r\n\r\nimport { EIP712 } from \"../util/EIP712.sol\";\r\n\r\ncontract EIP712Test {\r\n    function makeDomainSeparator(string calldata name, string calldata version)\r\n        external\r\n        view\r\n        returns (bytes32)\r\n    {\r\n        return EIP712.makeDomainSeparator(name, version);\r\n    }\r\n\r\n    function recover(\r\n        bytes32 domainSeparator,\r\n        uint8 v,\r\n        bytes32 r,\r\n        bytes32 s,\r\n        bytes calldata typeHashAndData\r\n    ) external pure returns (address) {\r\n        return EIP712.recover(domainSeparator, v, r, s, typeHashAndData);\r\n    }\r\n}\r\n",
  "sourcePath": "C:/Users/ENCRYPTION.001/Desktop/Projects/Dyclude/PGS/contracts/test/EIP712Test.sol",
  "compiler": {
    "name": "solc",
    "version": "0.7.4+commit.3f05b770.Emscripten.clang"
  },
  "schemaVersion": "3.3.2",
  "updatedAt": "2020-11-17T12:32:33.817Z",
  "devdoc": {
    "kind": "dev",
    "methods": {},
    "version": 1
  },
  "userdoc": {
    "kind": "user",
    "methods": {},
    "version": 1
  }
}