{
  "contractName": "FiatTokenUtil",
  "abi": [
    {
      "inputs": [
        {
          "internalType": "address",
          "name": "fiatToken",
          "type": "address"
        }
      ],
      "stateMutability": "nonpayable",
      "type": "constructor"
    },
    {
      "anonymous": false,
      "inputs": [
        {
          "indexed": true,
          "internalType": "address",
          "name": "authorizer",
          "type": "address"
        },
        {
          "indexed": true,
          "internalType": "bytes32",
          "name": "nonce",
          "type": "bytes32"
        }
      ],
      "name": "TransferFailed",
      "type": "event"
    },
    {
      "inputs": [
        {
          "internalType": "bytes",
          "name": "params",
          "type": "bytes"
        },
        {
          "internalType": "bytes",
          "name": "signatures",
          "type": "bytes"
        },
        {
          "internalType": "bool",
          "name": "atomic",
          "type": "bool"
        }
      ],
      "name": "transferWithMultipleAuthorizations",
      "outputs": [
        {
          "internalType": "bool",
          "name": "",
          "type": "bool"
        }
      ],
      "stateMutability": "nonpayable",
      "type": "function"
    }
  ],
  "bytecode": "0x608060405234801561001057600080fd5b50604051610a19380380610a198339818101604052602081101561003357600080fd5b8101908080519060200190929190505050806000806101000a81548173ffffffffffffffffffffffffffffffffffffffff021916908373ffffffffffffffffffffffffffffffffffffffff16021790555050610985806100946000396000f3fe608060405234801561001057600080fd5b506004361061002b5760003560e01c8063e5c880f014610030575b600080fd5b6101086004803603606081101561004657600080fd5b810190808035906020019064010000000081111561006357600080fd5b82018360208201111561007557600080fd5b8035906020019184600183028401116401000000008311171561009757600080fd5b9091929391929390803590602001906401000000008111156100b857600080fd5b8201836020820111156100ca57600080fd5b803590602001918460018302840111640100000000831117156100ec57600080fd5b9091929391929390803515159060200190929190505050610120565b60405180821515815260200191505060405180910390f35b60008060a8878790508161013057fe5b0490506000811161018c576040517f08c379a000000000000000000000000000000000000000000000000000000000815260040180806020018281038252602381526020018061092d6023913960400191505060405180910390fd5b8686905060a88202146101ea576040517f08c379a000000000000000000000000000000000000000000000000000000000815260040180806020018281038252602a8152602001806108d5602a913960400191505060405180910390fd5b80604186869050816101f857fe5b0414801561020b57508484905060418202145b610260576040517f08c379a000000000000000000000000000000000000000000000000000000000815260040180806020018281038252602e8152602001806108ff602e913960400191505060405180910390fd5b6000805b828110156106fe57600060a882029050600060418302905060606102c28c8c85906028870192610296939291906108a1565b60405160200180838380828437808301925050509250505060405160208183030381529060405261070f565b905060608c8c602886019060a88701926102de939291906108a1565b604051602001808383808284378083019250505092505050604051602081830303815290604052905060008b8b8581811061031557fe5b9050013560f81c60f81b60f81c905060608c8c6001870190604188019261033e939291906108a1565b60405160200180838380828437808301925050509250505060405160208183030381529060405290506000606060008054906101000a900473ffffffffffffffffffffffffffffffffffffffff1673ffffffffffffffffffffffffffffffffffffffff1663e3ee160e60e01b878787604051602001808260ff1681526020019150506040516020818303038152906040528760405160200180867bffffffffffffffffffffffffffffffffffffffffffffffffffffffff1916815260040185805190602001908083835b6020831061042b5780518252602082019150602081019050602083039250610408565b6001836020036101000a03801982511681845116808217855250505050505090500184805190602001908083835b6020831061047c5780518252602082019150602081019050602083039250610459565b6001836020036101000a03801982511681845116808217855250505050505090500183805190602001908083835b602083106104cd57805182526020820191506020810190506020830392506104aa565b6001836020036101000a03801982511681845116808217855250505050505090500182805190602001908083835b6020831061051e57805182526020820191506020810190506020830392506104fb565b6001836020036101000a038019825116818451168082178552505050505050905001955050505050506040516020818303038152906040526040518082805190602001908083835b602083106105895780518252602082019150602081019050602083039250610566565b6001836020036101000a0380198251168184511680821785525050505050509050019150506000604051808303816000865af19150503d80600081146105eb576040519150601f19603f3d011682016040523d82523d6000602084013e6105f0565b606091505b50915091508c8015610600575081155b1561060f5761060e8161077f565b5b81156106225789806001019a50506106e9565b600086806020019051604081101561063957600080fd5b810190808051906020019092919080519060200190929190505050509050600086806020019051608081101561066e57600080fd5b81019080805190602001909291908051906020019092919080519060200190929190805190602001909291905050509350505050808273ffffffffffffffffffffffffffffffffffffffff167f13cab104924a28ca77b3228596ebc8e597aa628ce47d39429f3cb62b9a9ac60f60405160405180910390a350505b50505050505050508080600101915050610264565b508181149250505095945050505050565b606060008060148401519150602884015190508181604051602001808373ffffffffffffffffffffffffffffffffffffffff1681526020018273ffffffffffffffffffffffffffffffffffffffff1681526020019250505060405160208183030381529060405292505050919050565b6064815110156107f7576040517f08c379a000000000000000000000000000000000000000000000000000000000815260040180806020018281038252601a8152602001807f46696174546f6b656e5574696c3a2063616c6c206661696c656400000000000081525060200191505060405180910390fd5b6060604482019050806040517f08c379a00000000000000000000000000000000000000000000000000000000081526004018080602001828103825283818151815260200191508051906020019080838360005b8381101561086657808201518184015260208101905061084b565b50505050905090810190601f1680156108935780820380516001836020036101000a031916815260200191505b509250505060405180910390fd5b600080858511156108b157600080fd5b838611156108be57600080fd5b600185028301915084860390509450949250505056fe46696174546f6b656e5574696c3a206c656e677468206f6620706172616d7320697320696e76616c696446696174546f6b656e5574696c3a206c656e677468206f66207369676e61747572657320697320696e76616c696446696174546f6b656e5574696c3a206e6f207472616e736665722070726f7669646564a2646970667358221220ea8da9d55586d1f1ff11b1295b3179df63965bf63efff987e9f7d675f8e2165e64736f6c63430007040033",
  "immutableReferences": {},
  "source": "/**\r\n * SPDX-License-Identifier: MIT\r\n *\r\n * Copyright (c) 2020 DYCLUDE\r\n *\r\n * Permission is hereby granted, free of charge, to any person obtaining a copy\r\n * of this software and associated documentation files (the \"Software\"), to deal\r\n * in the Software without restriction, including without limitation the rights\r\n * to use, copy, modify, merge, publish, distribute, sublicense, and/or sell\r\n * copies of the Software, and to permit persons to whom the Software is\r\n * furnished to do so, subject to the following conditions:\r\n *\r\n * The above copyright notice and this permission notice shall be included in\r\n * copies or substantial portions of the Software.\r\n *\r\n * THE SOFTWARE IS PROVIDED \"AS IS\", WITHOUT WARRANTY OF ANY KIND, EXPRESS OR\r\n * IMPLIED, INCLUDING BUT NOT LIMITED TO THE WARRANTIES OF MERCHANTABILITY,\r\n * FITNESS FOR A PARTICULAR PURPOSE AND NONINFRINGEMENT. IN NO EVENT SHALL THE\r\n * AUTHORS OR COPYRIGHT HOLDERS BE LIABLE FOR ANY CLAIM, DAMAGES OR OTHER\r\n * LIABILITY, WHETHER IN AN ACTION OF CONTRACT, TORT OR OTHERWISE, ARISING FROM,\r\n * OUT OF OR IN CONNECTION WITH THE SOFTWARE OR THE USE OR OTHER DEALINGS IN THE\r\n * SOFTWARE.\r\n */\r\n\r\npragma solidity >=0.4.22 <0.8.0;\r\n\r\ncontract FiatTokenUtil {\r\n    // (address,address,uint256,uint256,uint256,bytes32) = 20*2 + 32*4 = 168\r\n    uint256 private constant _TRANSFER_PARAM_SIZE = 168;\r\n    // (uint8,bytes32,bytes32) = 1 + 32*2 = 65\r\n    uint256 private constant _SIGNATURE_SIZE = 65;\r\n    // keccak256(\"transferWithAuthorization(address,address,uint256,uint256,uint256,bytes32,uint8,bytes32,bytes32)\")[0:4]\r\n    bytes4 private constant _TRANSFER_WITH_AUTHORIZATION_SELECTOR = 0xe3ee160e;\r\n\r\n    address private _fiatToken;\r\n\r\n    event TransferFailed(address indexed authorizer, bytes32 indexed nonce);\r\n\r\n    /**\r\n     * @notice Constructor\r\n     * @dev If FiatTokenProxy is used to hold state and delegate calls, the\r\n     * proxy's address should be provided, not the implementation address\r\n     * @param fiatToken Address of the FiatToken contract\r\n     */\r\n    constructor(address fiatToken) public {\r\n        _fiatToken = fiatToken;\r\n    }\r\n\r\n    /**\r\n     * @notice Execute multiple authorized ERC20 Transfers\r\n     * @dev The length of params must be multiples of 168, each representing\r\n     * encode-packed data containing from[20] + to[20] + value[32] +\r\n     * validAfter[32] + validBefore[32] + nonce[32], and the length of\r\n     * signatures must be multiples of 65, each representing encode-packed data\r\n     * containing v[1] + r[32] + s[32].\r\n     * @param params      Concatenated, encode-packed parameters\r\n     * @param signatures  Concatenated, encode-packed signatures\r\n     * @param atomic      If true, revert if any of the transfers fail\r\n     * @return            True if every transfer was successful\r\n     */\r\n    function transferWithMultipleAuthorizations(\r\n        bytes calldata params,\r\n        bytes calldata signatures,\r\n        bool atomic\r\n    ) external returns (bool) {\r\n        uint256 num = params.length / _TRANSFER_PARAM_SIZE;\r\n        require(num > 0, \"FiatTokenUtil: no transfer provided\");\r\n        require(\r\n            num * _TRANSFER_PARAM_SIZE == params.length,\r\n            \"FiatTokenUtil: length of params is invalid\"\r\n        );\r\n        require(\r\n            signatures.length / _SIGNATURE_SIZE == num &&\r\n                num * _SIGNATURE_SIZE == signatures.length,\r\n            \"FiatTokenUtil: length of signatures is invalid\"\r\n        );\r\n\r\n        uint256 numSuccessful = 0;\r\n\r\n        for (uint256 i = 0; i < num; i++) {\r\n            uint256 paramsOffset = i * _TRANSFER_PARAM_SIZE;\r\n            uint256 sigOffset = i * _SIGNATURE_SIZE;\r\n\r\n            // extract from and to\r\n            bytes memory fromTo = _unpackAddresses(\r\n                abi.encodePacked(params[paramsOffset:paramsOffset + 40])\r\n            );\r\n            // extract value, validAfter, validBefore, and nonce\r\n            bytes memory other4 = abi.encodePacked(\r\n                params[paramsOffset + 40:paramsOffset + _TRANSFER_PARAM_SIZE]\r\n            );\r\n            // extract v\r\n            uint8 v = uint8(signatures[sigOffset]);\r\n            // extract r and s\r\n            bytes memory rs = abi.encodePacked(\r\n                signatures[sigOffset + 1:sigOffset + _SIGNATURE_SIZE]\r\n            );\r\n\r\n            // Call transferWithAuthorization with the extracted parameters\r\n            // solhint-disable-next-line avoid-low-level-calls\r\n            (bool success, bytes memory returnData) = _fiatToken.call(\r\n                abi.encodePacked(\r\n                    _TRANSFER_WITH_AUTHORIZATION_SELECTOR,\r\n                    fromTo,\r\n                    other4,\r\n                    abi.encode(v),\r\n                    rs\r\n                )\r\n            );\r\n\r\n            // Revert if atomic is true, and the call was not successful\r\n            if (atomic && !success) {\r\n                _revertWithReasonFromReturnData(returnData);\r\n            }\r\n\r\n            // Increment the number of successful transfers\r\n            if (success) {\r\n                numSuccessful++;\r\n            } else {\r\n                // extract from\r\n                (address from, ) = abi.decode(fromTo, (address, address));\r\n                // extract nonce\r\n                (, , , bytes32 nonce) = abi.decode(\r\n                    other4,\r\n                    (uint256, uint256, uint256, bytes32)\r\n                );\r\n                emit TransferFailed(from, nonce);\r\n            }\r\n        }\r\n\r\n        // Return true if all transfers were successful\r\n        return numSuccessful == num;\r\n    }\r\n\r\n    /**\r\n     * @dev Converts encodePacked pair of addresses (20bytes + 20 bytes) to\r\n     * regular ABI-encoded pair of addresses (32bytes + 32bytes)\r\n     * @param packed Packed data (40 bytes)\r\n     * @return Unpacked data (64 bytes)\r\n     */\r\n    function _unpackAddresses(bytes memory packed)\r\n        private\r\n        pure\r\n        returns (bytes memory)\r\n    {\r\n        address addr1;\r\n        address addr2;\r\n        assembly {\r\n            addr1 := mload(add(packed, 20))\r\n            addr2 := mload(add(packed, 40))\r\n        }\r\n        return abi.encode(addr1, addr2);\r\n    }\r\n\r\n    /**\r\n     * @dev Revert with reason string extracted from the return data\r\n     * @param returnData    Return data from a call\r\n     */\r\n    function _revertWithReasonFromReturnData(bytes memory returnData)\r\n        private\r\n        pure\r\n    {\r\n        // Return data will be at least 100 bytes if it contains the reason\r\n        // string: Error(string) selector[4] + string offset[32] + string\r\n        // length[32] + string data[32] = 100\r\n        if (returnData.length < 100) {\r\n            revert(\"FiatTokenUtil: call failed\");\r\n        }\r\n\r\n        // If the reason string exists, extract it, and bubble it up\r\n        string memory reason;\r\n        assembly {\r\n            // Skip over the bytes length[32] + Error(string) selector[4] +\r\n            // string offset[32] = 68 (0x44)\r\n            reason := add(returnData, 0x44)\r\n        }\r\n\r\n        revert(reason);\r\n    }\r\n}\r\n",
  "sourcePath": "C:/Users/ENCRYPTION.001/Desktop/Projects/Dyclude/PGS/contracts/v2/FiatTokenUtil.sol",
  "compiler": {
    "name": "solc",
    "version": "0.7.4+commit.3f05b770.Emscripten.clang"
  },
  "schemaVersion": "3.3.2",
  "updatedAt": "2020-11-17T12:32:35.389Z",
  "devdoc": {
    "kind": "dev",
    "methods": {
      "constructor": {
        "details": "If FiatTokenProxy is used to hold state and delegate calls, the proxy's address should be provided, not the implementation address",
        "params": {
          "fiatToken": "Address of the FiatToken contract"
        }
      },
      "transferWithMultipleAuthorizations(bytes,bytes,bool)": {
        "details": "The length of params must be multiples of 168, each representing encode-packed data containing from[20] + to[20] + value[32] + validAfter[32] + validBefore[32] + nonce[32], and the length of signatures must be multiples of 65, each representing encode-packed data containing v[1] + r[32] + s[32].",
        "params": {
          "atomic": "If true, revert if any of the transfers fail",
          "params": "Concatenated, encode-packed parameters",
          "signatures": "Concatenated, encode-packed signatures"
        },
        "returns": {
          "_0": "True if every transfer was successful"
        }
      }
    },
    "version": 1
  },
  "userdoc": {
    "kind": "user",
    "methods": {
      "constructor": {
        "notice": "Constructor"
      },
      "transferWithMultipleAuthorizations(bytes,bytes,bool)": {
        "notice": "Execute multiple authorized ERC20 Transfers"
      }
    },
    "version": 1
  }
}