{
  "contractName": "Pausable",
  "abi": [
    {
      "anonymous": false,
      "inputs": [
        {
          "indexed": false,
          "internalType": "address",
          "name": "previousOwner",
          "type": "address"
        },
        {
          "indexed": false,
          "internalType": "address",
          "name": "newOwner",
          "type": "address"
        }
      ],
      "name": "OwnershipTransferred",
      "type": "event"
    },
    {
      "anonymous": false,
      "inputs": [],
      "name": "Pause",
      "type": "event"
    },
    {
      "anonymous": false,
      "inputs": [
        {
          "indexed": true,
          "internalType": "address",
          "name": "newAddress",
          "type": "address"
        }
      ],
      "name": "PauserChanged",
      "type": "event"
    },
    {
      "anonymous": false,
      "inputs": [],
      "name": "Unpause",
      "type": "event"
    },
    {
      "inputs": [],
      "name": "owner",
      "outputs": [
        {
          "internalType": "address",
          "name": "",
          "type": "address"
        }
      ],
      "stateMutability": "view",
      "type": "function"
    },
    {
      "inputs": [],
      "name": "paused",
      "outputs": [
        {
          "internalType": "bool",
          "name": "",
          "type": "bool"
        }
      ],
      "stateMutability": "view",
      "type": "function"
    },
    {
      "inputs": [],
      "name": "pauser",
      "outputs": [
        {
          "internalType": "address",
          "name": "",
          "type": "address"
        }
      ],
      "stateMutability": "view",
      "type": "function"
    },
    {
      "inputs": [
        {
          "internalType": "address",
          "name": "newOwner",
          "type": "address"
        }
      ],
      "name": "transferOwnership",
      "outputs": [],
      "stateMutability": "nonpayable",
      "type": "function"
    },
    {
      "inputs": [],
      "name": "pause",
      "outputs": [],
      "stateMutability": "nonpayable",
      "type": "function"
    },
    {
      "inputs": [],
      "name": "unpause",
      "outputs": [],
      "stateMutability": "nonpayable",
      "type": "function"
    },
    {
      "inputs": [
        {
          "internalType": "address",
          "name": "_newPauser",
          "type": "address"
        }
      ],
      "name": "updatePauser",
      "outputs": [],
      "stateMutability": "nonpayable",
      "type": "function"
    }
  ],
  "bytecode": "0x60806040526000600160146101000a81548160ff02191690831515021790555034801561002b57600080fd5b5061003b3361004060201b60201c565b610083565b806000806101000a81548173ffffffffffffffffffffffffffffffffffffffff021916908373ffffffffffffffffffffffffffffffffffffffff16021790555050565b61089c806100926000396000f3fe608060405234801561001057600080fd5b506004361061007d5760003560e01c80638456cb591161005b5780638456cb59146100f05780638da5cb5b146100fa5780639fd0506d1461012e578063f2fde38b146101625761007d565b80633f4ba83a14610082578063554bab3c1461008c5780635c975abb146100d0575b600080fd5b61008a6101a6565b005b6100ce600480360360208110156100a257600080fd5b81019080803573ffffffffffffffffffffffffffffffffffffffff169060200190929190505050610295565b005b6100d8610485565b60405180821515815260200191505060405180910390f35b6100f8610498565b005b610102610586565b604051808273ffffffffffffffffffffffffffffffffffffffff16815260200191505060405180910390f35b6101366105af565b604051808273ffffffffffffffffffffffffffffffffffffffff16815260200191505060405180910390f35b6101a46004803603602081101561017857600080fd5b81019080803573ffffffffffffffffffffffffffffffffffffffff1690602001909291905050506105d5565b005b600160009054906101000a900473ffffffffffffffffffffffffffffffffffffffff1673ffffffffffffffffffffffffffffffffffffffff163373ffffffffffffffffffffffffffffffffffffffff161461024c576040517f08c379a00000000000000000000000000000000000000000000000000000000081526004018080602001828103825260228152602001806108456022913960400191505060405180910390fd5b6000600160146101000a81548160ff0219169083151502179055507f7805862f689e2f13df9f062ff482ad3ad112aca9e0847911ed832e158c525b3360405160405180910390a1565b60008054906101000a900473ffffffffffffffffffffffffffffffffffffffff1673ffffffffffffffffffffffffffffffffffffffff163373ffffffffffffffffffffffffffffffffffffffff1614610356576040517f08c379a00000000000000000000000000000000000000000000000000000000081526004018080602001828103825260208152602001807f4f776e61626c653a2063616c6c6572206973206e6f7420746865206f776e657281525060200191505060405180910390fd5b600073ffffffffffffffffffffffffffffffffffffffff168173ffffffffffffffffffffffffffffffffffffffff1614156103dc576040517f08c379a00000000000000000000000000000000000000000000000000000000081526004018080602001828103825260288152602001806107f76028913960400191505060405180910390fd5b80600160006101000a81548173ffffffffffffffffffffffffffffffffffffffff021916908373ffffffffffffffffffffffffffffffffffffffff160217905550600160009054906101000a900473ffffffffffffffffffffffffffffffffffffffff1673ffffffffffffffffffffffffffffffffffffffff167fb80482a293ca2e013eda8683c9bd7fc8347cfdaeea5ede58cba46df502c2a60460405160405180910390a250565b600160149054906101000a900460ff1681565b600160009054906101000a900473ffffffffffffffffffffffffffffffffffffffff1673ffffffffffffffffffffffffffffffffffffffff163373ffffffffffffffffffffffffffffffffffffffff161461053e576040517f08c379a00000000000000000000000000000000000000000000000000000000081526004018080602001828103825260228152602001806108456022913960400191505060405180910390fd5b60018060146101000a81548160ff0219169083151502179055507f6985a02210a168e66602d3235cb6db0e70f92b3ba4d376a33c0f3d9434bff62560405160405180910390a1565b60008060009054906101000a900473ffffffffffffffffffffffffffffffffffffffff16905090565b600160009054906101000a900473ffffffffffffffffffffffffffffffffffffffff1681565b60008054906101000a900473ffffffffffffffffffffffffffffffffffffffff1673ffffffffffffffffffffffffffffffffffffffff163373ffffffffffffffffffffffffffffffffffffffff1614610696576040517f08c379a00000000000000000000000000000000000000000000000000000000081526004018080602001828103825260208152602001807f4f776e61626c653a2063616c6c6572206973206e6f7420746865206f776e657281525060200191505060405180910390fd5b600073ffffffffffffffffffffffffffffffffffffffff168173ffffffffffffffffffffffffffffffffffffffff16141561071c576040517f08c379a000000000000000000000000000000000000000000000000000000000815260040180806020018281038252602681526020018061081f6026913960400191505060405180910390fd5b7f8be0079c531659141344cd1fd0a4f28419497f9722a3daafe3b4186f6b6457e060008054906101000a900473ffffffffffffffffffffffffffffffffffffffff1682604051808373ffffffffffffffffffffffffffffffffffffffff1681526020018273ffffffffffffffffffffffffffffffffffffffff1681526020019250505060405180910390a16107b0816107b3565b50565b806000806101000a81548173ffffffffffffffffffffffffffffffffffffffff021916908373ffffffffffffffffffffffffffffffffffffffff1602179055505056fe5061757361626c653a206e65772070617573657220697320746865207a65726f20616464726573734f776e61626c653a206e6577206f776e657220697320746865207a65726f20616464726573735061757361626c653a2063616c6c6572206973206e6f742074686520706175736572a2646970667358221220b1fa56ac9121641687660c42015ad8cd9621c7bdbe1aa61e24883e8e13a6f63664736f6c63430007040033",
  "immutableReferences": {},
  "source": "/**\r\n * SPDX-License-Identifier: MIT\r\n *\r\n * Copyright (c) 2020 DYCLUDE\r\n *\r\n * Permission is hereby granted, free of charge, to any person obtaining a copy\r\n * of this software and associated documentation files (the \"Software\"), to deal\r\n * in the Software without restriction, including without limitation the rights\r\n * to use, copy, modify, merge, publish, distribute, sublicense, and/or sell\r\n * copies of the Software, and to permit persons to whom the Software is\r\n * furnished to do so, subject to the following conditions:\r\n *\r\n * The above copyright notice and this permission notice shall be included in\r\n * copies or substantial portions of the Software.\r\n *\r\n * THE SOFTWARE IS PROVIDED \"AS IS\", WITHOUT WARRANTY OF ANY KIND, EXPRESS OR\r\n * IMPLIED, INCLUDING BUT NOT LIMITED TO THE WARRANTIES OF MERCHANTABILITY,\r\n * FITNESS FOR A PARTICULAR PURPOSE AND NONINFRINGEMENT. IN NO EVENT SHALL THE\r\n * AUTHORS OR COPYRIGHT HOLDERS BE LIABLE FOR ANY CLAIM, DAMAGES OR OTHER\r\n * LIABILITY, WHETHER IN AN ACTION OF CONTRACT, TORT OR OTHERWISE, ARISING FROM,\r\n * OUT OF OR IN CONNECTION WITH THE SOFTWARE OR THE USE OR OTHER DEALINGS IN THE\r\n * SOFTWARE.\r\n */\r\n \r\npragma solidity >=0.4.22 <0.8.0;\r\n\r\nimport { Ownable } from \"./Ownable.sol\";\r\n\r\n/**\r\n * @notice Base contract which allows children to implement an emergency stop\r\n * mechanism\r\n * @dev Forked from https://github.com/OpenZeppelin/openzeppelin-contracts/blob/feb665136c0dae9912e08397c1a21c4af3651ef3/contracts/lifecycle/Pausable.sol\r\n * Modifications:\r\n * 1. Added pauser role, switched pause/unpause to be onlyPauser (6/14/2018)\r\n * 2. Removed whenNotPause/whenPaused from pause/unpause (6/14/2018)\r\n * 3. Removed whenPaused (6/14/2018)\r\n * 4. Switches ownable library to use ZeppelinOS (7/12/18)\r\n * 5. Remove constructor (7/13/18)\r\n * 6. Reformat, conform to Solidity 0.6 syntax and add error messages (5/13/20)\r\n * 7. Make public functions external (5/27/20)\r\n */\r\ncontract Pausable is Ownable {\r\n    event Pause();\r\n    event Unpause();\r\n    event PauserChanged(address indexed newAddress);\r\n\r\n    address public pauser;\r\n    bool public paused = false;\r\n\r\n    /**\r\n     * @dev Modifier to make a function callable only when the contract is not paused.\r\n     */\r\n    modifier whenNotPaused() {\r\n        require(!paused, \"Pausable: paused\");\r\n        _;\r\n    }\r\n\r\n    /**\r\n     * @dev throws if called by any account other than the pauser\r\n     */\r\n    modifier onlyPauser() {\r\n        require(msg.sender == pauser, \"Pausable: caller is not the pauser\");\r\n        _;\r\n    }\r\n\r\n    /**\r\n     * @dev called by the owner to pause, triggers stopped state\r\n     */\r\n    function pause() external onlyPauser {\r\n        paused = true;\r\n        emit Pause();\r\n    }\r\n\r\n    /**\r\n     * @dev called by the owner to unpause, returns to normal state\r\n     */\r\n    function unpause() external onlyPauser {\r\n        paused = false;\r\n        emit Unpause();\r\n    }\r\n\r\n    /**\r\n     * @dev update the pauser role\r\n     */\r\n    function updatePauser(address _newPauser) external onlyOwner {\r\n        require(\r\n            _newPauser != address(0),\r\n            \"Pausable: new pauser is the zero address\"\r\n        );\r\n        pauser = _newPauser;\r\n        emit PauserChanged(pauser);\r\n    }\r\n}\r\n",
  "sourcePath": "C:\\Users\\ENCRYPTION.001\\Desktop\\Projects\\Dyclude\\PGS\\contracts\\v1\\Pausable.sol",
  "compiler": {
    "name": "solc",
    "version": "0.7.4+commit.3f05b770.Emscripten.clang"
  },
  "schemaVersion": "3.3.2",
  "updatedAt": "2020-11-17T15:55:54.956Z",
  "devdoc": {
    "details": "Forked from https://github.com/OpenZeppelin/openzeppelin-contracts/blob/feb665136c0dae9912e08397c1a21c4af3651ef3/contracts/lifecycle/Pausable.sol Modifications: 1. Added pauser role, switched pause/unpause to be onlyPauser (6/14/2018) 2. Removed whenNotPause/whenPaused from pause/unpause (6/14/2018) 3. Removed whenPaused (6/14/2018) 4. Switches ownable library to use ZeppelinOS (7/12/18) 5. Remove constructor (7/13/18) 6. Reformat, conform to Solidity 0.6 syntax and add error messages (5/13/20) 7. Make public functions external (5/27/20)",
    "kind": "dev",
    "methods": {
      "owner()": {
        "details": "Tells the address of the owner",
        "returns": {
          "_0": "the address of the owner"
        }
      },
      "pause()": {
        "details": "called by the owner to pause, triggers stopped state"
      },
      "transferOwnership(address)": {
        "details": "Allows the current owner to transfer control of the contract to a newOwner.",
        "params": {
          "newOwner": "The address to transfer ownership to."
        }
      },
      "unpause()": {
        "details": "called by the owner to unpause, returns to normal state"
      },
      "updatePauser(address)": {
        "details": "update the pauser role"
      }
    },
    "version": 1
  },
  "userdoc": {
    "kind": "user",
    "methods": {},
    "notice": "Base contract which allows children to implement an emergency stop mechanism",
    "version": 1
  }
}