{
  "contractName": "V2UpgraderHelper",
  "abi": [
    {
      "inputs": [
        {
          "internalType": "address",
          "name": "fiatTokenProxy",
          "type": "address"
        }
      ],
      "stateMutability": "nonpayable",
      "type": "constructor"
    },
    {
      "anonymous": false,
      "inputs": [
        {
          "indexed": false,
          "internalType": "address",
          "name": "previousOwner",
          "type": "address"
        },
        {
          "indexed": false,
          "internalType": "address",
          "name": "newOwner",
          "type": "address"
        }
      ],
      "name": "OwnershipTransferred",
      "type": "event"
    },
    {
      "inputs": [],
      "name": "owner",
      "outputs": [
        {
          "internalType": "address",
          "name": "",
          "type": "address"
        }
      ],
      "stateMutability": "view",
      "type": "function"
    },
    {
      "inputs": [
        {
          "internalType": "address",
          "name": "newOwner",
          "type": "address"
        }
      ],
      "name": "transferOwnership",
      "outputs": [],
      "stateMutability": "nonpayable",
      "type": "function"
    },
    {
      "inputs": [],
      "name": "proxy",
      "outputs": [
        {
          "internalType": "address",
          "name": "",
          "type": "address"
        }
      ],
      "stateMutability": "view",
      "type": "function"
    },
    {
      "inputs": [],
      "name": "name",
      "outputs": [
        {
          "internalType": "string",
          "name": "",
          "type": "string"
        }
      ],
      "stateMutability": "view",
      "type": "function"
    },
    {
      "inputs": [],
      "name": "symbol",
      "outputs": [
        {
          "internalType": "string",
          "name": "",
          "type": "string"
        }
      ],
      "stateMutability": "view",
      "type": "function"
    },
    {
      "inputs": [],
      "name": "decimals",
      "outputs": [
        {
          "internalType": "uint8",
          "name": "",
          "type": "uint8"
        }
      ],
      "stateMutability": "view",
      "type": "function"
    },
    {
      "inputs": [],
      "name": "currency",
      "outputs": [
        {
          "internalType": "string",
          "name": "",
          "type": "string"
        }
      ],
      "stateMutability": "view",
      "type": "function"
    },
    {
      "inputs": [],
      "name": "masterMinter",
      "outputs": [
        {
          "internalType": "address",
          "name": "",
          "type": "address"
        }
      ],
      "stateMutability": "view",
      "type": "function"
    },
    {
      "inputs": [],
      "name": "fiatTokenOwner",
      "outputs": [
        {
          "internalType": "address",
          "name": "",
          "type": "address"
        }
      ],
      "stateMutability": "view",
      "type": "function"
    },
    {
      "inputs": [],
      "name": "pauser",
      "outputs": [
        {
          "internalType": "address",
          "name": "",
          "type": "address"
        }
      ],
      "stateMutability": "view",
      "type": "function"
    },
    {
      "inputs": [],
      "name": "blacklister",
      "outputs": [
        {
          "internalType": "address",
          "name": "",
          "type": "address"
        }
      ],
      "stateMutability": "view",
      "type": "function"
    },
    {
      "inputs": [
        {
          "internalType": "address",
          "name": "account",
          "type": "address"
        }
      ],
      "name": "balanceOf",
      "outputs": [
        {
          "internalType": "uint256",
          "name": "",
          "type": "uint256"
        }
      ],
      "stateMutability": "view",
      "type": "function"
    },
    {
      "inputs": [
        {
          "internalType": "address",
          "name": "from",
          "type": "address"
        },
        {
          "internalType": "address",
          "name": "to",
          "type": "address"
        },
        {
          "internalType": "uint256",
          "name": "value",
          "type": "uint256"
        }
      ],
      "name": "transferFrom",
      "outputs": [
        {
          "internalType": "bool",
          "name": "",
          "type": "bool"
        }
      ],
      "stateMutability": "nonpayable",
      "type": "function"
    },
    {
      "inputs": [],
      "name": "tearDown",
      "outputs": [],
      "stateMutability": "nonpayable",
      "type": "function"
    }
  ],
  "bytecode": "0x608060405234801561001057600080fd5b506040516112df3803806112df8339818101604052602081101561003357600080fd5b81019080805190602001909291905050506100533361009a60201b60201c565b80600160006101000a81548173ffffffffffffffffffffffffffffffffffffffff021916908373ffffffffffffffffffffffffffffffffffffffff160217905550506100dd565b806000806101000a81548173ffffffffffffffffffffffffffffffffffffffff021916908373ffffffffffffffffffffffffffffffffffffffff16021790555050565b6111f3806100ec6000396000f3fe608060405234801561001057600080fd5b50600436106100ea5760003560e01c806395d89b411161008c578063e5a6b10f11610066578063e5a6b10f146103f6578063ec1e6a4f14610479578063ec55688914610483578063f2fde38b146104b7576100ea565b806395d89b411461030b5780639fd0506d1461038e578063bd102430146103c2576100ea565b806335d99f35116100c857806335d99f35146102175780636d3c5bbe1461024b57806370a082311461027f5780638da5cb5b146102d7576100ea565b806306fdde03146100ef57806323b872dd14610172578063313ce567146101f6575b600080fd5b6100f76104fb565b6040518080602001828103825283818151815260200191508051906020019080838360005b8381101561013757808201518184015260208101905061011c565b50505050905090810190601f1680156101645780820380516001836020036101000a031916815260200191505b509250505060405180910390f35b6101de6004803603606081101561018857600080fd5b81019080803573ffffffffffffffffffffffffffffffffffffffff169060200190929190803573ffffffffffffffffffffffffffffffffffffffff16906020019092919080359060200190929190505050610663565b60405180821515815260200191505060405180910390f35b6101fe61075a565b604051808260ff16815260200191505060405180910390f35b61021f610804565b604051808273ffffffffffffffffffffffffffffffffffffffff16815260200191505060405180910390f35b6102536108ae565b604051808273ffffffffffffffffffffffffffffffffffffffff16815260200191505060405180910390f35b6102c16004803603602081101561029557600080fd5b81019080803573ffffffffffffffffffffffffffffffffffffffff169060200190929190505050610958565b6040518082815260200191505060405180910390f35b6102df610a25565b604051808273ffffffffffffffffffffffffffffffffffffffff16815260200191505060405180910390f35b610313610a4e565b6040518080602001828103825283818151815260200191508051906020019080838360005b83811015610353578082015181840152602081019050610338565b50505050905090810190601f1680156103805780820380516001836020036101000a031916815260200191505b509250505060405180910390f35b610396610bb6565b604051808273ffffffffffffffffffffffffffffffffffffffff16815260200191505060405180910390f35b6103ca610c60565b604051808273ffffffffffffffffffffffffffffffffffffffff16815260200191505060405180910390f35b6103fe610d0a565b6040518080602001828103825283818151815260200191508051906020019080838360005b8381101561043e578082015181840152602081019050610423565b50505050905090810190601f16801561046b5780820380516001836020036101000a031916815260200191505b509250505060405180910390f35b610481610e72565b005b61048b610f4c565b604051808273ffffffffffffffffffffffffffffffffffffffff16815260200191505060405180910390f35b6104f9600480360360208110156104cd57600080fd5b81019080803573ffffffffffffffffffffffffffffffffffffffff169060200190929190505050610f76565b005b6060600160009054906101000a900473ffffffffffffffffffffffffffffffffffffffff1673ffffffffffffffffffffffffffffffffffffffff166306fdde036040518163ffffffff1660e01b815260040160006040518083038186803b15801561056557600080fd5b505afa158015610579573d6000803e3d6000fd5b505050506040513d6000823e3d601f19601f8201168201806040525060208110156105a357600080fd5b81019080805160405193929190846401000000008211156105c357600080fd5b838201915060208201858111156105d957600080fd5b82518660018202830111640100000000821117156105f657600080fd5b8083526020830192505050908051906020019080838360005b8381101561062a57808201518184015260208101905061060f565b50505050905090810190601f1680156106575780820380516001836020036101000a031916815260200191505b50604052505050905090565b6000600160009054906101000a900473ffffffffffffffffffffffffffffffffffffffff1673ffffffffffffffffffffffffffffffffffffffff166323b872dd8585856040518463ffffffff1660e01b8152600401808473ffffffffffffffffffffffffffffffffffffffff1681526020018373ffffffffffffffffffffffffffffffffffffffff1681526020018281526020019350505050602060405180830381600087803b15801561071657600080fd5b505af115801561072a573d6000803e3d6000fd5b505050506040513d602081101561074057600080fd5b810190808051906020019092919050505090509392505050565b6000600160009054906101000a900473ffffffffffffffffffffffffffffffffffffffff1673ffffffffffffffffffffffffffffffffffffffff1663313ce5676040518163ffffffff1660e01b815260040160206040518083038186803b1580156107c457600080fd5b505afa1580156107d8573d6000803e3d6000fd5b505050506040513d60208110156107ee57600080fd5b8101908080519060200190929190505050905090565b6000600160009054906101000a900473ffffffffffffffffffffffffffffffffffffffff1673ffffffffffffffffffffffffffffffffffffffff166335d99f356040518163ffffffff1660e01b815260040160206040518083038186803b15801561086e57600080fd5b505afa158015610882573d6000803e3d6000fd5b505050506040513d602081101561089857600080fd5b8101908080519060200190929190505050905090565b6000600160009054906101000a900473ffffffffffffffffffffffffffffffffffffffff1673ffffffffffffffffffffffffffffffffffffffff16638da5cb5b6040518163ffffffff1660e01b815260040160206040518083038186803b15801561091857600080fd5b505afa15801561092c573d6000803e3d6000fd5b505050506040513d602081101561094257600080fd5b8101908080519060200190929190505050905090565b6000600160009054906101000a900473ffffffffffffffffffffffffffffffffffffffff1673ffffffffffffffffffffffffffffffffffffffff166370a08231836040518263ffffffff1660e01b8152600401808273ffffffffffffffffffffffffffffffffffffffff16815260200191505060206040518083038186803b1580156109e357600080fd5b505afa1580156109f7573d6000803e3d6000fd5b505050506040513d6020811015610a0d57600080fd5b81019080805190602001909291905050509050919050565b60008060009054906101000a900473ffffffffffffffffffffffffffffffffffffffff16905090565b6060600160009054906101000a900473ffffffffffffffffffffffffffffffffffffffff1673ffffffffffffffffffffffffffffffffffffffff166395d89b416040518163ffffffff1660e01b815260040160006040518083038186803b158015610ab857600080fd5b505afa158015610acc573d6000803e3d6000fd5b505050506040513d6000823e3d601f19601f820116820180604052506020811015610af657600080fd5b8101908080516040519392919084640100000000821115610b1657600080fd5b83820191506020820185811115610b2c57600080fd5b8251866001820283011164010000000082111715610b4957600080fd5b8083526020830192505050908051906020019080838360005b83811015610b7d578082015181840152602081019050610b62565b50505050905090810190601f168015610baa5780820380516001836020036101000a031916815260200191505b50604052505050905090565b6000600160009054906101000a900473ffffffffffffffffffffffffffffffffffffffff1673ffffffffffffffffffffffffffffffffffffffff16639fd0506d6040518163ffffffff1660e01b815260040160206040518083038186803b158015610c2057600080fd5b505afa158015610c34573d6000803e3d6000fd5b505050506040513d6020811015610c4a57600080fd5b8101908080519060200190929190505050905090565b6000600160009054906101000a900473ffffffffffffffffffffffffffffffffffffffff1673ffffffffffffffffffffffffffffffffffffffff1663bd1024306040518163ffffffff1660e01b815260040160206040518083038186803b158015610cca57600080fd5b505afa158015610cde573d6000803e3d6000fd5b505050506040513d6020811015610cf457600080fd5b8101908080519060200190929190505050905090565b6060600160009054906101000a900473ffffffffffffffffffffffffffffffffffffffff1673ffffffffffffffffffffffffffffffffffffffff1663e5a6b10f6040518163ffffffff1660e01b815260040160006040518083038186803b158015610d7457600080fd5b505afa158015610d88573d6000803e3d6000fd5b505050506040513d6000823e3d601f19601f820116820180604052506020811015610db257600080fd5b8101908080516040519392919084640100000000821115610dd257600080fd5b83820191506020820185811115610de857600080fd5b8251866001820283011164010000000082111715610e0557600080fd5b8083526020830192505050908051906020019080838360005b83811015610e39578082015181840152602081019050610e1e565b50505050905090810190601f168015610e665780820380516001836020036101000a031916815260200191505b50604052505050905090565b60008054906101000a900473ffffffffffffffffffffffffffffffffffffffff1673ffffffffffffffffffffffffffffffffffffffff163373ffffffffffffffffffffffffffffffffffffffff1614610f33576040517f08c379a00000000000000000000000000000000000000000000000000000000081526004018080602001828103825260208152602001807f4f776e61626c653a2063616c6c6572206973206e6f7420746865206f776e657281525060200191505060405180910390fd5b3373ffffffffffffffffffffffffffffffffffffffff16ff5b6000600160009054906101000a900473ffffffffffffffffffffffffffffffffffffffff16905090565b60008054906101000a900473ffffffffffffffffffffffffffffffffffffffff1673ffffffffffffffffffffffffffffffffffffffff163373ffffffffffffffffffffffffffffffffffffffff1614611037576040517f08c379a00000000000000000000000000000000000000000000000000000000081526004018080602001828103825260208152602001807f4f776e61626c653a2063616c6c6572206973206e6f7420746865206f776e657281525060200191505060405180910390fd5b600073ffffffffffffffffffffffffffffffffffffffff168173ffffffffffffffffffffffffffffffffffffffff1614156110bd576040517f08c379a00000000000000000000000000000000000000000000000000000000081526004018080602001828103825260268152602001806111986026913960400191505060405180910390fd5b7f8be0079c531659141344cd1fd0a4f28419497f9722a3daafe3b4186f6b6457e060008054906101000a900473ffffffffffffffffffffffffffffffffffffffff1682604051808373ffffffffffffffffffffffffffffffffffffffff1681526020018273ffffffffffffffffffffffffffffffffffffffff1681526020019250505060405180910390a161115181611154565b50565b806000806101000a81548173ffffffffffffffffffffffffffffffffffffffff021916908373ffffffffffffffffffffffffffffffffffffffff1602179055505056fe4f776e61626c653a206e6577206f776e657220697320746865207a65726f2061646472657373a2646970667358221220b8433beab960bbd0acb5085c4fe2afb5372b59374acf7dedf4d7b209f5f24d9364736f6c63430007040033",
  "immutableReferences": {},
  "source": "/**\r\n * SPDX-License-Identifier: MIT\r\n *\r\n * Copyright (c) 2020 DYCLUDE\r\n *\r\n * Permission is hereby granted, free of charge, to any person obtaining a copy\r\n * of this software and associated documentation files (the \"Software\"), to deal\r\n * in the Software without restriction, including without limitation the rights\r\n * to use, copy, modify, merge, publish, distribute, sublicense, and/or sell\r\n * copies of the Software, and to permit persons to whom the Software is\r\n * furnished to do so, subject to the following conditions:\r\n *\r\n * The above copyright notice and this permission notice shall be included in\r\n * copies or substantial portions of the Software.\r\n *\r\n * THE SOFTWARE IS PROVIDED \"AS IS\", WITHOUT WARRANTY OF ANY KIND, EXPRESS OR\r\n * IMPLIED, INCLUDING BUT NOT LIMITED TO THE WARRANTIES OF MERCHANTABILITY,\r\n * FITNESS FOR A PARTICULAR PURPOSE AND NONINFRINGEMENT. IN NO EVENT SHALL THE\r\n * AUTHORS OR COPYRIGHT HOLDERS BE LIABLE FOR ANY CLAIM, DAMAGES OR OTHER\r\n * LIABILITY, WHETHER IN AN ACTION OF CONTRACT, TORT OR OTHERWISE, ARISING FROM,\r\n * OUT OF OR IN CONNECTION WITH THE SOFTWARE OR THE USE OR OTHER DEALINGS IN THE\r\n * SOFTWARE.\r\n */\r\n\r\npragma solidity >=0.4.22 <0.8.0;\r\n\r\nimport { FiatTokenV1 } from \"../../v1/FiatTokenV1.sol\";\r\nimport { Ownable } from \"../../v1/Ownable.sol\";\r\n\r\n/**\r\n * @title V2 Upgrader Helper\r\n * @dev Enables V2Upgrader to read some contract state before it renounces the\r\n * proxy admin role. (Proxy admins cannot call delegated methods.) It is also\r\n * used to test approve/transferFrom.\r\n */\r\ncontract V2UpgraderHelper is Ownable {\r\n    address private _proxy;\r\n\r\n    /**\r\n     * @notice Constructor\r\n     * @param fiatTokenProxy    Address of the FiatTokenProxy contract\r\n     */\r\n    constructor(address fiatTokenProxy) public Ownable() {\r\n        _proxy = fiatTokenProxy;\r\n    }\r\n\r\n    /**\r\n     * @notice The address of the FiatTokenProxy contract\r\n     * @return Contract address\r\n     */\r\n    function proxy() external view returns (address) {\r\n        return address(_proxy);\r\n    }\r\n\r\n    /**\r\n     * @notice Call name()\r\n     * @return name\r\n     */\r\n    function name() external view returns (string memory) {\r\n        return FiatTokenV1(_proxy).name();\r\n    }\r\n\r\n    /**\r\n     * @notice Call symbol()\r\n     * @return symbol\r\n     */\r\n    function symbol() external view returns (string memory) {\r\n        return FiatTokenV1(_proxy).symbol();\r\n    }\r\n\r\n    /**\r\n     * @notice Call decimals()\r\n     * @return decimals\r\n     */\r\n    function decimals() external view returns (uint8) {\r\n        return FiatTokenV1(_proxy).decimals();\r\n    }\r\n\r\n    /**\r\n     * @notice Call currency()\r\n     * @return currency\r\n     */\r\n    function currency() external view returns (string memory) {\r\n        return FiatTokenV1(_proxy).currency();\r\n    }\r\n\r\n    /**\r\n     * @notice Call masterMinter()\r\n     * @return masterMinter\r\n     */\r\n    function masterMinter() external view returns (address) {\r\n        return FiatTokenV1(_proxy).masterMinter();\r\n    }\r\n\r\n    /**\r\n     * @notice Call owner()\r\n     * @dev Renamed to fiatTokenOwner due to the existence of Ownable.owner()\r\n     * @return owner\r\n     */\r\n    function fiatTokenOwner() external view returns (address) {\r\n        return FiatTokenV1(_proxy).owner();\r\n    }\r\n\r\n    /**\r\n     * @notice Call pauser()\r\n     * @return pauser\r\n     */\r\n    function pauser() external view returns (address) {\r\n        return FiatTokenV1(_proxy).pauser();\r\n    }\r\n\r\n    /**\r\n     * @notice Call blacklister()\r\n     * @return blacklister\r\n     */\r\n    function blacklister() external view returns (address) {\r\n        return FiatTokenV1(_proxy).blacklister();\r\n    }\r\n\r\n    /**\r\n     * @notice Call balanceOf(address)\r\n     * @param account   Account\r\n     * @return balance\r\n     */\r\n    function balanceOf(address account) external view returns (uint256) {\r\n        return FiatTokenV1(_proxy).balanceOf(account);\r\n    }\r\n\r\n    /**\r\n     * @notice Call transferFrom(address,address,uint256)\r\n     * @param from     Sender\r\n     * @param to       Recipient\r\n     * @param value    Amount\r\n     * @return result\r\n     */\r\n    function transferFrom(\r\n        address from,\r\n        address to,\r\n        uint256 value\r\n    ) external returns (bool) {\r\n        return FiatTokenV1(_proxy).transferFrom(from, to, value);\r\n    }\r\n\r\n    /**\r\n     * @notice Tear down the contract (self-destruct)\r\n     */\r\n    function tearDown() external onlyOwner {\r\n        selfdestruct(msg.sender);\r\n    }\r\n}\r\n",
  "sourcePath": "C:\\Users\\ENCRYPTION.001\\Desktop\\Projects\\Dyclude\\PGS\\contracts\\v2\\upgrader\\V2UpgraderHelper.sol",
  "compiler": {
    "name": "solc",
    "version": "0.7.4+commit.3f05b770.Emscripten.clang"
  },
  "schemaVersion": "3.3.2",
  "updatedAt": "2020-11-17T15:55:57.272Z",
  "devdoc": {
    "details": "Enables V2Upgrader to read some contract state before it renounces the proxy admin role. (Proxy admins cannot call delegated methods.) It is also used to test approve/transferFrom.",
    "kind": "dev",
    "methods": {
      "balanceOf(address)": {
        "params": {
          "account": "Account"
        },
        "returns": {
          "_0": "balance"
        }
      },
      "blacklister()": {
        "returns": {
          "_0": "blacklister"
        }
      },
      "constructor": {
        "params": {
          "fiatTokenProxy": "Address of the FiatTokenProxy contract"
        }
      },
      "currency()": {
        "returns": {
          "_0": "currency"
        }
      },
      "decimals()": {
        "returns": {
          "_0": "decimals"
        }
      },
      "fiatTokenOwner()": {
        "details": "Renamed to fiatTokenOwner due to the existence of Ownable.owner()",
        "returns": {
          "_0": "owner"
        }
      },
      "masterMinter()": {
        "returns": {
          "_0": "masterMinter"
        }
      },
      "name()": {
        "returns": {
          "_0": "name"
        }
      },
      "owner()": {
        "details": "Tells the address of the owner",
        "returns": {
          "_0": "the address of the owner"
        }
      },
      "pauser()": {
        "returns": {
          "_0": "pauser"
        }
      },
      "proxy()": {
        "returns": {
          "_0": "Contract address"
        }
      },
      "symbol()": {
        "returns": {
          "_0": "symbol"
        }
      },
      "transferFrom(address,address,uint256)": {
        "params": {
          "from": "Sender",
          "to": "Recipient",
          "value": "Amount"
        },
        "returns": {
          "_0": "result"
        }
      },
      "transferOwnership(address)": {
        "details": "Allows the current owner to transfer control of the contract to a newOwner.",
        "params": {
          "newOwner": "The address to transfer ownership to."
        }
      }
    },
    "title": "V2 Upgrader Helper",
    "version": 1
  },
  "userdoc": {
    "kind": "user",
    "methods": {
      "balanceOf(address)": {
        "notice": "Call balanceOf(address)"
      },
      "blacklister()": {
        "notice": "Call blacklister()"
      },
      "constructor": {
        "notice": "Constructor"
      },
      "currency()": {
        "notice": "Call currency()"
      },
      "decimals()": {
        "notice": "Call decimals()"
      },
      "fiatTokenOwner()": {
        "notice": "Call owner()"
      },
      "masterMinter()": {
        "notice": "Call masterMinter()"
      },
      "name()": {
        "notice": "Call name()"
      },
      "pauser()": {
        "notice": "Call pauser()"
      },
      "proxy()": {
        "notice": "The address of the FiatTokenProxy contract"
      },
      "symbol()": {
        "notice": "Call symbol()"
      },
      "tearDown()": {
        "notice": "Tear down the contract (self-destruct)"
      },
      "transferFrom(address,address,uint256)": {
        "notice": "Call transferFrom(address,address,uint256)"
      }
    },
    "version": 1
  }
}